:020000040800F2
:100000000000022091020008E1020008E10200085D
:10001000E1020008E1020008E1020008000000001F
:10002000000000000000000000000000E1020008E5
:10003000E102000800000000E1020008E1020008FF
:10004000E1020008E1020008E1020008E102000804
:10005000E1020008E1020008E1020008E1020008F4
:10006000E1020008E1020008E1020008E1020008E4
:10007000E1020008E1020008E1020008E1020008D4
:10008000E1020008E1020008E102000800000000AF
:10009000000000000000000000000000E102000875
:1000A000E1020008E1020008E1020008E1020008A4
:1000B000E1020008E1020008E1020008E102000894
:1000C000E1020008E1020008E1020008E102000884
:1000D000E1020008E1020008E1020008000000005F
:1000E000E1020008E1020008E1020008000000004F
:1000F000000000000000000000000000E102000815
:1001000000000000E1020008E1020008E10200082E
:1001100000000000000000000000000000000000DF
:10012000E1020008E1020008E1020008E102000823
:10013000E1020008000000000000000000000000D4
:10014000000000000000000000000000E1020008C4
:10015000E1020008E1020008E1020008E1020008F3
:10016000E1020008E10200080000000000000000B9
:10017000000000000000000000000000000000007F
:1001800000000000E1020008000000000000000084
:08019000E1020008E102000891
:1001980010B5054C237833B9044B13B10448AFF3B9
:1001A80000800123237010BD000000200000000023
:1001B8002C03000808B5034B1BB103490348AFF3F0
:1001C800008008BD00000000040000202C03000887
:1001D800034AD2F8883043F47003C2F88830704775
:1001E80000ED00E082B0019000E000BF019B5A1EC4
:1001F8000192002BF9D102B07047000038B51F4AB0
:10020800D2F8303843F00503C2F830381C4B1A686E
:1002180022F4406242F480621A60D3F8002822F087
:100228004062C3F80028DA6822F44062DA60D3F842
:100238000C2822F0406242F08062C3F80C280122A8
:10024800002507E00E4A202151611D460D48FFF7A1
:10025800C9FF22460A4BD3F8104804F40051C4F3EE
:100268004034002AF2D00029F0D185F00103002D96
:10027800E8D1034A202191611D46E7E7003002409A
:1002880000000240E0930400DFF834D00D480E4926
:100298000E4A002302E0D458C4500433C4188C42D8
:1002A800F9D30B4A0B4C002301E013600432A2423D
:1002B800FBD3FFF78DFF00F011F8FFF79FFF7047A2
:1002C8000000022000000020000000204C0300086D
:1002D800000000201C000020FEE7000070B50D4D56
:1002E8000D4C641BA4100026A64209D10B4D0C4CE2
:1002F80000F018F8641BA4100026A64205D170BDB2
:1003080055F8043B98470136EEE755F8043B984703
:100318000136F2E7440300084403000844030008D8
:1003280048030008F8B500BFF8BC08BC9E467047F3
:0C033800F8B500BFF8BC08BC9E4670473A
:04034400BD010008EF
:04034800990100080F
:04000005080002915C
:00000001FF
