:020000040800F2
:1000000000000220B90800080909000809090008D1
:100010000909000809090008090900080000000092
:1000200000000000000000000000000009090008B6
:100030000909000800000000090900081902000869
:100040000909000809090008090900080909000848
:100050000909000809090008090900080909000838
:1000600009090008090900085D02000809090008DB
:100070000909000809090008090900080909000818
:100080000909000809090008090900080000000022
:100090000000000000000000000000000909000846
:1000A00009090008090900080909000809090008E8
:1000B00009090008090900080909000809090008D8
:1000C00009090008090900080909000809090008C8
:1000D00009090008090900080909000800000000D2
:1000E000D102000809090008090900080000000001
:1000F00000000000000000000000000009090008E6
:1001000000000000090900080909000809090008A1
:1001100000000000000000000000000000000000DF
:100120000909000809090008090900080909000867
:1001300009090008000000000000000000000000A5
:100140000000000000000000000000000909000895
:100150000909000809090008090900080909000837
:10016000090900080909000800000000000000005B
:10017000000000000000000000000000000000007F
:100180000000000009090008000000000000000055
:08019000090900080909000833
:1001980010B5054C237833B9044B13B10448AFF3B9
:1001A80000800123237010BD000000200000000023
:1001B8005409000808B5034B1BB103490348AFF3C2
:1001C800008008BD00000000040000205409000859
:1001D800034AD2F8883043F47003C2F88830704775
:1001E80000ED00E008B500F0A9F900F01DF900F0F5
:1001F800D7F900F0F3F901E000F086FA034B1B7819
:10020800002BF9D000F0D4FAF8E700BF6000002016
:100218000C4A1368013313600B4A136801331360E7
:10022800002307E0094951F82320013241F823202F
:100238000133DBB2052BF5D9054A13680133136086
:10024800704700BF640000205800002030000020E4
:100258002C000020154A536943F010035361144BD6
:100268001B6913F0100F15D1124B1A68124B1B683B
:10027800D31A312B0ED9114B1B7863B910490B785F
:100288000133DBB20B70022B02D90B460021197027
:10029800094B1A6070470B490B780133DBB20B70BE
:1002A800052BF5D90B4600211970F1E7003C0140F8
:1002B80000080240640000201C00002060000020AC
:1002C8005F00002056000020364B5B6913F4005F86
:1002D8002BD0344A536943F400535361324B1B69A2
:1002E80013F4005F21D1314B1868314B1B68C31AD6
:1002F800312B1AD92F4A137883F001031370002386
:100308002D4A13602D4A13702D4A13602D4A13701D
:1003180007E000222C49CA542C4941F82320013314
:10032800DBB2052BF5D9224B18601E4B5B6913F421
:10033800805F25D01B4A536943F480535361244B93
:100348001B6913F4805F1BD1184B1A68214B1B687B
:10035800D31A312B14D9174B197891B91E4B187829
:100368001E4B1B5C0133DBB2022B00D819461B4B1A
:100378001954002311490B700F490B60154B1A6073
:100388007047174B1978174B5B5C0133DBB2022BB4
:1003980000D90023134843540C4B002043F8210094
:1003A800ECE700BF003C0140000802406400002068
:1003B8002400002060000020580000205700002082
:1003C8002C000020280000204800002030000020D9
:1003D80000040240200000205F0000205C00002094
:1003E800560000205000002000B500F00700C0F1C2
:1003F800070CBCF1040F28BF4FF0040C031D062B9B
:100408000FD9C31E4FF0FF3E0EFA0CF021EA00018F
:1004180099400EFA03FE22EA0E0241EA02005DF854
:1004280004FB0023EEE70000414B1A6B42F0010287
:100438001A631A6B42F002021A631A6B42F0040242
:100448001A63A3F540531A6822F040621A60DA680A
:1004580022F0406242F08062DA60364A116821F088
:1004680040711160D16821F0407141F08071D16014
:10047800196821F440711960D96821F4407141F478
:100488008071D9602C49086820F4406040F480608D
:100498000860486820F020004860886940F400102F
:1004A8008861186820F4406040F4806018605868DB
:1004B80020F020005860986940F40010986108689E
:1004C80020F4405040F480500860486820F0400014
:1004D8004860886940F480008861116821F00C0147
:1004E80041F004011160516821F0020151609169E5
:1004F80041F400319161196821F4405141F480516F
:100508001960596821F040015960996941F48001E6
:100518009961136823F0300343F0100313605368A4
:1005280023F004035360936943F480239361704775
:10053800003802400004024000000240164A1368D6
:1005480043F001031360144B1B6813F0020FFAD039
:10055800124B1A6822F007021A601A6842F4E06225
:100568001A600D4A936823F0030393600A4B9B6853
:1005780013F00C0FFAD1084B9A6822F0F0029A6037
:100588009A6822F4E05242F480529A609A6822F4FF
:1005980060429A60704700BF00380240003C024049
:1005A8004FF0E0231A6922F001021A611A6942F039
:1005B80004021A611A6942F002021A615A6902F0C9
:1005C8007F4242F4795242F03F025A6100229A6116
:1005D8001A6942F001021A6170470000F8B52E4A04
:1005E800536C43F4804353642C4D6B6923F0F00340
:1005F80043F020036B612A4C236843F400532360C3
:10060800A36823F40053A360E36843F40053E36052
:10061800244FF86800220121C0F30220FFF7E4FE0E
:100628000001C0B2204E86F828034FF4807373602F
:100638006B6923F00F0343F001036B61236843F4F4
:1006480080532360A36823F48053A360E36843F4D2
:100658008053E360EB6823F00F0343F00203EB6081
:10066800236843F010032360A36823F01003A360FA
:10067800E36843F01003E360F86800220121C0F347
:100688000220FFF7B1FE0001C0B286F80A034FF45A
:1006980080633360F8BD00BF003802400038014075
:1006A800003C014000ED00E000E100E0084A9369E9
:1006B80043F4C003936102F58062936943F4C02355
:1006C800936102F58062936943F4C00393617047B4
:1006D80000000240012804D0022805D14FF4E3703D
:1006E80070474FF4137070474FF4FA607047012851
:1006F80004D0022805D140F2CA20704740F2E240F7
:10070800704740F60550704738B5244B1B78244A8B
:10071800D05CFFF7DFFF0446012824D96508FFF7FE
:10072800C5FF204B1B68AB420DD21C4A1278E2B9B8
:100738001D498A6942F040028A6101F580618A692F
:1007480042F002028A61A3420CD3164B00221A60BF
:10075800124A13780133DBB21370022B02D9134605
:1007680000221A7038BD0224D8E7012A0BD00E499E
:100778008A6942F020028A6101F580618A6942F043
:1007880004028A61DFE7094A916941F02001916119
:10079800916941F040019161D5E700BF5700002001
:1007A8005C000020580000200000024000080240C1
:1007B80038B5374B1B78052B10D8364A1268B2F576
:1007C800FA7F0BD3344A0121D1540022334941F82E
:1007D800232001332E490B702E4B1A60FFF766FF5A
:1007E800002411E002201CE02D4A936943F0200305
:1007F80093612A4B53F82530834203D3274B0022B9
:1008080043F825200134E4B2052C3FD82546224B75
:100818001B5D002BF6D0234B185DFFF768FF0128FE
:10082800E0D91E4B53F82530B3EB500FE1D2052C1D
:10083800DFD801A353F824F0F1070008590800088D
:1008480065080008710800087D0800088908000884
:10085800154A936943F020039361CAE7104A9369E4
:1008680043F040039361C4E7104A936943F00203DD
:100878009361BEE70C4A936943F040039361B8E77C
:100888000A4A936943F004039361B2E738BD00BF95
:10089800280000202C000020480000203000002004
:1008A80000000240500000200008024000040240FE
:1008B800DFF834D00D480E490E4A002302E0D45820
:1008C800C4500433C4188C42F9D30B4A0B4C002390
:1008D80001E013600432A242FBD3FFF779FC00F079
:1008E80011F8FFF77FFC704700000220000000208D
:1008F80000000020740900080000002068000020A3
:10090800FEE7000070B50D4D0D4C641BA4100026C9
:10091800A64209D10B4D0C4C00F018F8641BA4102A
:100928000026A64205D170BD55F8043B984701360C
:10093800EEE755F8043B98470136F2E76C090008E2
:100948006C0900086C09000870090008F8B500BFB8
:10095800F8BC08BC9E467047F8B500BFF8BC08BC98
:040968009E467047F0
:04096C00BD010008C1
:0409700099010008E1
:04000005080008B92E
:00000001FF
