:020000040800F2
:100000000000022099040008E9040008E90400083F
:10001000E9040008E9040008E90400080000000001
:10002000000000000000000000000000E9040008DB
:10003000E904000800000000E9040008E9040008E1
:10004000E9040008E9040008E9040008E9040008DC
:10005000E9040008E9040008E9040008E9040008CC
:10006000E9040008E9040008E9040008E9040008BC
:10007000E9040008E9040008E9040008E9040008AC
:10008000E9040008E9040008E90400080000000091
:10009000000000000000000000000000E90400086B
:1000A000E9040008E9040008E9040008E90400087C
:1000B000E9040008E9040008E9040008E90400086C
:1000C000E9040008E9040008E9040008E90400085C
:1000D000E9040008E9040008E90400080000000041
:1000E000E9040008E9040008E90400080000000031
:1000F000000000000000000000000000E90400080B
:1001000000000000E9040008E9040008E904000810
:1001100000000000000000000000000000000000DF
:10012000E9040008E9040008E9040008E9040008FB
:10013000E9040008000000000000000000000000CA
:10014000000000000000000000000000E9040008BA
:10015000E9040008E9040008E9040008E9040008CB
:10016000E9040008E90400080000000000000000A5
:10017000000000000000000000000000000000007F
:1001800000000000E904000800000000000000007A
:08019000E9040008E90400087D
:1001980010B5054C237833B9044B13B10448AFF3B9
:1001A80000800123237010BD000000200000000023
:1001B8003405000808B5034B1BB103490348AFF3E6
:1001C800008008BD0000000004000020340500087D
:1001D800034AD2F8883043F47003C2F88830704775
:1001E80000ED00E010B500F013F9454BD3F81028E6
:1001F80012F4005F0CBF0120002042490870D3F8B8
:10020800101411F4805F0CBF012000203E490870D3
:1002180012F0100F0CBF012100213C4A11701B691C
:1002280013F4006F0CBF01220022394B1A70354AB3
:100238004FF40051374800F0DBF858B1364B1A78C4
:1002480036498B5C0133DBB28B54022B02D90B4647
:10025800002199542C4A4FF48051314800F0C8F8D5
:1002680048B12D4A13780133DBB21370022B02D93F
:10027800134600221A70254A1021264800F0B8F8C3
:1002880040B9234A4FF40061264800F0B1F858B944
:10029800002415E0204B1B7801222349CA54234926
:1002A800CA5400F05FF8ECE71B4B1B7800221E498C
:1002B800CA541E49CA5400F055F8E9E70134E4B2BB
:1002C800022CB4D8184B1B5D002BF7D0184A52F8F3
:1002D8002430013342F82430104A105D154A52F890
:1002E80020209342EAD3124B002243F824200F4ADD
:1002F800135DB3FA83F35B09135500F033F8DDE7B8
:10030800000002401F0000201E0000201D000020E9
:100318001C00002010080240330000203400002098
:10032800100402401000024030000020200000208D
:10033800240000204C050008094B4FF400129A6174
:10034800C3F818284FF480029A614FF40031C3F8BB
:100358001814C3F818284FF48022C3F818247047DB
:10036800000002401F4B1B7843B11F4B1B782BB179
:100378001E4B20229A61C3F8182805E01B4B4FF446
:1003880000129A61C3F81828164B5B7853B1164BC4
:100398005B783BB1154B4022C3F818280422C3F8F8
:1003A800182408E0114B4FF48002C3F818284FF4C2
:1003B8008022C3F818240B4B9B784BB10A4B9B78CF
:1003C80033B10A4B40229A610222C3F818247047BD
:1003D800064B4FF480029A614FF40032C3F8182498
:1003E800704700BF300000202000002000000240BD
:1003F80003680B40002B0CBF0123002303D11178A5
:1004080021B1002000E00020137070470120FBE7B5
:1004180008B51D4AD2F8303843F00703C2F830381F
:100428001A4B196841F480621A60D3F8002842F424
:100438008060C3F8000842F4A052C3F80028D3F83B
:10044800002442F01000C3F8000441F4A0511960E0
:1004580042F01402C3F80024D3F80C2842F080625A
:10046800C3F80C28D3F80C1441F08071C3F80C14AD
:1004780042F48072C3F80C28DA6842F48002DA6029
:10048800FFF75AFF08BD00BF0030024000000240DD
:10049800DFF834D00D480E490E4A002302E0D45844
:1004A800C4500433C4188C42F9D30B4A0B4C0023B4
:1004B80001E013600432A242FBD3FFF789FE00F08B
:1004C80011F8FFF78FFE704700000220000000209F
:1004D800000000206005000800000020380000200F
:1004E800FEE7000070B50D4D0D4C641BA4100026EE
:1004F800A64209D10B4D0C4C00F018F8641BA4104F
:100508000026A64205D170BD55F8043B9847013630
:10051800EEE755F8043B98470136F2E7580500081E
:1005280058050008580500085C050008F8B500BF24
:10053800F8BC08BC9E467047F8B500BFF8BC08BCBC
:040548009E46704714
:0C054C0010270000905F010020BF02009B
:04055800BD010008D9
:04055C0099010008F9
:040000050800049952
:00000001FF
