:020000040800F2
:100000000000022065020008B5020008B5020008E1
:10001000B5020008B5020008B502000800000000A3
:10002000000000000000000000000000B502000811
:10003000B502000800000000B5020008B502000883
:10004000B5020008B5020008B5020008B5020008B4
:10005000B5020008B5020008B5020008B5020008A4
:10006000B5020008B5020008B5020008B502000894
:10007000B5020008B5020008B5020008B502000884
:10008000B5020008B5020008B50200080000000033
:10009000000000000000000000000000B5020008A1
:1000A000B5020008B5020008B5020008B502000854
:1000B000B5020008B5020008B5020008B502000844
:1000C000B5020008B5020008B5020008B502000834
:1000D000B5020008B5020008B502000800000000E3
:1000E000B5020008B5020008B502000800000000D3
:1000F000000000000000000000000000B502000841
:1001000000000000B5020008B5020008B5020008B2
:1001100000000000000000000000000000000000DF
:10012000B5020008B5020008B5020008B5020008D3
:10013000B502000800000000000000000000000000
:10014000000000000000000000000000B5020008F0
:10015000B5020008B5020008B5020008B5020008A3
:10016000B5020008B5020008000000000000000011
:10017000000000000000000000000000000000007F
:1001800000000000B50200080000000000000000B0
:08019000B5020008B5020008E9
:1001980010B5054C237833B9044B13B10448AFF3B9
:1001A80000800123237010BD000000200000000023
:1001B8000003000808B5034B1BB103490348AFF31C
:1001C800008008BD000000000400002000030008B3
:1001D800034AD2F8883043F47003C2F88830704775
:1001E80000ED00E082B0019000E000BF019B5A1EC4
:1001F8000192002BF9D102B07047000008B5144AEB
:10020800D2F8303843F00203C2F83038114B1A687C
:1002180022F440621A6042F480621A609A6842F4DA
:1002280080629A60DA6822F44062DA60094C636995
:1002380043F020036361084D2846FFF7D3FF636945
:1002480023F0200363612846FFF7CCFFEEE700BFE9
:10025800003002400000024040420F00DFF834D076
:100268000D480E490E4A002302E0D458C450043306
:10027800C4188C42F9D30B4A0B4C002301E01360DD
:100288000432A242FBD3FFF7A3FF00F011F8FFF7F7
:10029800B5FF704700000220000000200000002089
:1002A80020030008000000201C000020FEE70000DA
:1002B80070B50D4D0D4C641BA4100026A64209D143
:1002C8000B4D0C4C00F018F8641BA4100026A64235
:1002D80005D170BD55F8043B98470136EEE755F84F
:1002E800043B98470136F2E7180300081803000892
:1002F800180300081C030008F8B500BFF8BC08BCC8
:100308009E467047F8B500BFF8BC08BC9E467047CB
:04031800BD0100081B
:04031C00990100083B
:040000050800026588
:00000001FF
