:020000040800F2
:10000000000002202D0500087D0500087D05000880
:100010007D0500087D0500087D0500080000000042
:100020000000000000000000000000007D05000846
:100030007D050008000000007D0500087D05000822
:100040007D0500087D0500087D0500087D05000888
:100050007D0500087D0500087D0500087D05000878
:100060007D0500087D0500087D0500087D05000868
:100070007D0500087D0500087D0500087D05000858
:100080007D0500087D0500087D05000800000000D2
:100090000000000000000000000000007D050008D6
:1000A0007D0500087D0500087D0500087D05000828
:1000B0007D0500087D0500087D0500087D05000818
:1000C0007D0500087D0500087D0500087D05000808
:1000D0007D0500087D0500087D0500080000000082
:1000E0007D0500087D0500087D0500080000000072
:1000F0000000000000000000000000007D05000876
:10010000000000007D0500087D0500087D05000851
:1001100000000000000000000000000000000000DF
:100120007D0500087D0500087D0500087D050008A7
:100130007D05000800000000000000000000000035
:100140000000000000000000000000007D05000825
:100150007D0500087D0500087D0500087D05000877
:100160007D0500087D05000800000000000000007B
:10017000000000000000000000000000000000007F
:10018000000000007D0500080000000000000000E5
:080190007D0500087D05000853
:1001980010B5054C237833B9044B13B10448AFF3B9
:1001A80000800123237010BD04000020000000001F
:1001B800C805000808B5034B1BB103490348AFF352
:1001C800008008BD0000000008000020C8050008E5
:1001D800034AD2F8883043F47003C2F88830704775
:1001E80000ED00E008B500F041F9544BD3F81028B1
:1001F80012F4005F0CBF01210021514A1170D3F89D
:10020800102412F4805F0CBF012100214D4A1170A7
:100218004D4A126912F0100F0CBF012100214B4A00
:1002280011701B6913F4006F0CBF01220022484BA8
:100238001A7000F0BFF83AE0464A136801331360B9
:10024800454B02221A70454B1A7845498B5CB3FA24
:1002580083F35B098B5400F0ADF85CE0414A136806
:10026800013313603C4B03221A703C4B5A783C49CB
:100278008B5CB3FA83F35B098B5400F09BF852E074
:10028800394A136801331360334B04221A70334B15
:100298009A7833498B5CB3FA83F35B098B5400F08B
:1002A80089F847E001334CF24F329342FADD284A8D
:1002B8004FF400612D4800F0C9F820B32C4A1368A8
:1002C80001331360244B01221A70244B9A78597811
:1002D8009970197859701A70264A13780133DBB26D
:1002E8001370254AA2FB031202F0FE0101EB520231
:1002F8009B1A13F0FF0F06D1184B00221A70012227
:100308005A7002229A700E4A4FF400511B4800F0AE
:100318009DF8002890D10B4A4FF48051184800F0FE
:1003280095F800289AD1094A1021144800F08EF84F
:100338000028A5D10023084A1370B4E70000024042
:100348003800002037000020000802403600002056
:100358003500002030000020200000200000002090
:100368003C0000202C000020280000201000024043
:100378002400002034000020ABAAAAAA10080240DA
:1003880010040240094B4FF400129A6108498A612F
:100398004FF48002C3F818284FF48021C3F81814CA
:1003A8009A614FF40032C3F81824704700000240E5
:1003B8000008024010B4204B197809B320231F4AC3
:1003C800936102F5006293611B4B5A7802B31B4B91
:1003D8004020C3F818080420C3F81804164B9B786B
:1003E80003B31648402484610224C0F81844144812
:1003F800017014490A70144A13705DF8044B704771
:100408004FF400130D4A936102F500629361DBE734
:100418000A4B4FF48000C3F818084FF48020C3F843
:100428001804DBE705484FF4800484614FF4003476
:10043800C0F81844DBE700BF3C0000200000024081
:1004480023000020220000202100002003680B4028
:10045800002B0CBF0123002303D1117821B1002008
:1004680000E00020137070470120FBE708B52A4A16
:10047800D2F8303843F00703C2F83038274B1A68EF
:1004880042F480621A601A6822F400621A60244AF0
:10049800116841F480611160116821F400611160F4
:1004A800196841F480511960D3F8001441F0040030
:1004B800C3F80004D3F8000840F48050C3F80008DB
:1004C80041F01401C3F80014D3F80C1841F080610E
:1004D800C3F80C18D3F80C1441F08071C3F80C144D
:1004E800116821F480711160116821F400711160A4
:1004F800D16821F48071D160D16821F40071D16094
:10050800D16841F48071D160DA6842F48002DA601F
:10051800FFF738FF08BD00BF00300240000002406E
:1005280000080240DFF834D00D480E490E4A002377
:1005380002E0D458C4500433C4188C42F9D30B4A8F
:100548000B4C002301E013600432A242FBD3FFF7F7
:100558003FFE00F011F8FFF745FE7047000002204B
:100568000000002004000020E80500080400002026
:1005780040000020FEE7000070B50D4D0D4C641BD7
:10058800A4100026A64209D10B4D0C4C00F018F817
:10059800641BA4100026A64205D170BD55F8043B83
:1005A80098470136EEE755F8043B98470136F2E7DD
:1005B800E0050008E0050008E0050008E40500087B
:1005C800F8B500BFF8BC08BC9E467047F8B500BF38
:0805D800F8BC08BC9E46704708
:0405E000BD01000851
:0405E4009901000871
:0405E800000102000C
:040000050800052DBD
:00000001FF
